:020000040800F2
:10000000D80B0020D5010008410D00081D0900088B
:100010003D0D0008C7050008D91E000800000000BB
:10002000000000000000000000000000651500084E
:1000300089070008000000002D1200085116000872
:10004000EF010008EF010008EF010008EF010008D0
:10005000EF010008EF010008EF010008EF010008C0
:10006000EF010008EF010008EF010008EF010008B0
:10007000EF010008EF010008EF010008EF010008A0
:10008000EF010008EF010008EF010008EF01000890
:10009000EF010008EF010008EF0100088B070008DE
:1000A000EF010008EF010008EF010008EF01000870
:1000B00031170008D9170008EF010008EF01000808
:1000C000EF010008EF010008EF010008EF01000850
:1000D000EF010008111B0008EF010008F91B0008E0
:1000E000EF010008EF010008EF010008EF01000830
:1000F000EF010008EF010008EF010008EF01000820
:10010000EF010008EF010008EF010008EF0100080F
:10011000EF010008EF010008EF010008EF010008FF
:10012000EF010008EF010008EF010008EF010008EF
:1001300000F002F800F03FF80AA090E8000C8244BA
:100140008344AAF10107DA4501D100F034F8AFF297
:10015000090EBAE80F0013F0010F18BFFB1A43F0A5
:1001600001031847603E0000803E0000103A24BFA3
:1001700078C878C1FAD8520724BF30C830C144BF0C
:1001800004680C607047000000230024002500264E
:10019000103A28BF78C1FBD8520728BF30C148BFEA
:1001A0000B607047642900F07180002070471FB514
:1001B0001FBD10B510BD00F0CCF91146FFF7F7FFD9
:1001C00002F010F800F0EAF903B4FFF7F2FF03BC05
:1001D00000F0F2F90948804709480047FEE7FEE7CA
:1001E000FEE7FEE7FEE7FEE7FEE7FEE7FEE7FEE7E7
:1001F00004480549054A064B704700005916000897
:1002000031010008D8050020D80B0020D8070020B5
:10021000D80700200FB41CB5074B06AA7B446946DB
:100220000090059800F07DF90020694600F08CF9F7
:100230001CBC5DF814FB00002903000070B50446E7
:1002400085690068C10601D5302600E02026C00778
:1002500007D070BDD4E9012130469047206A401C88
:1002600020626D1EF6D570BD70B5044685690078B4
:10027000C00707D170BDD4E9012120209047206A32
:10028000401C20626D1EF6D570BD00002DE9F041C6
:100290000646002410687529314616A510D0AFF324
:1002A0000080002802DA404213A507E031688A077F
:1002B00001D512A502E0490704D511A5012401E0EA
:1002C000AFF3008000210A2206F1240709E0B0FB09
:1002D000F2FCB0FBF2F302FB1C00303078541846FD
:1002E000491C0028F3D123462A463046BDE8F04198
:1002F00000F0B9B8000000002D0000002B00000045
:10030000200000002DE9F0474FF0000A894604461E
:10031000C0F820A02046E1688847002876D025282C
:1003200006D0D4E901219047206A401C2062F1E701
:10033000E168204600258847C4F81CA0064600272F
:10034000C4F818A02A2E09D0304601F0C7FD38B3F2
:1003500004EB8708303EC8F8186019E059F8041B10
:10036000204604EB87029161E1688847012F064629
:1003700018D1E069002820DA25F020051DE0D8F822
:10038000180000EB800006EB40003038C8F8180079
:100390002046E1688847064601F0A0FD0028EED11E
:1003A000012F0AD02E2E08D12046E16888477F1CF5
:1003B0000646022F45F02005C4DBA069002803DAB9
:1003C000404245F00105A061E80701D025F0100585
:1003D000B6B1A6F14100192802D8203645F40065CF
:1003E0004A463146204625604D46FFF7DBFE58B1B0
:1003F000012806D0ED1D25F0070000F1080989E766
:1004000004E005F1040985E730468AE7206ABDE883
:10041000F0874FF0000200B5134694469646203907
:1004200022BFA0E80C50A0E80C50B1F12001BFF4AD
:10043000F7AF090728BFA0E80C5048BF0CC05DF813
:1004400004EB890028BF40F8042B08BF704748BF61
:1004500020F8022B11F0804F18BF00F8012B7047D5
:100460007047704770472DE9F0470D469946924610
:10047000044600F124080168880604D5E06921F0EB
:100480001001216000E00120A84201DD471B00E0CF
:100490000027A1697A1902EB0900081AA0612078E7
:1004A000C00602D42046FFF7C9FE002608E0D4E9C2
:1004B00001211AF806009047206A401C761C206231
:1004C0004E45F4DB2078C0060AD52046FFF7B6FE7D
:1004D00006E0D4E9012130209047206A401C2062C8
:1004E000381EA7F10107F4DC07E0D4E9012118F870
:1004F00005009047206A401C2062281EA5F10105D6
:10050000F3DC2046FFF7B0FE2078000602D502207B
:10051000BDE8F0870120FBE701694A1C0261087809
:10052000704700B58FB0CDE9013100210591054933
:100530007944CDE9031011466846FFF7E3FE0FB09A
:1005400000BD0000E5FFFFFF0A6802F8010B0A602A
:100550007047754600F02CF8AE46050069465346D4
:1005600020F00700854618B020B5FFF741FEBDE832
:1005700020404FF000064FF000074FF000084FF00A
:10058000000B21F00701AC46ACE8C009ACE8C0099B
:10059000ACE8C009ACE8C0098D46704710B5044608
:1005A000AFF300802046BDE81040FFF70DBE00000D
:1005B000004870477805002001491820ABBEFEE7CF
:1005C00026000200704700BFFEE7000010B50024BF
:1005D00000F024F804E0601CC4B2012001F040FDEA
:1005E0000D48006808B1642CF5DB642C01DB0120A8
:1005F00010BD002404E0601CC4B2012001F030FDF5
:100600000548006808B9642CF5DB642C01DB012087
:10061000EEE70020ECE700001801214208B5402079
:10062000ADF8000003208DF8020048208DF803008B
:100630006946024800F0AAF808BD00000008014021
:1006400008B54020ADF8000003208DF8020010200E
:100650008DF803006946024800F098F808BD0000D4
:100660000008014008B50121042000F001FE4020EF
:10067000ADF8000010208DF8030003208DF8020073
:100680006946044800F082F800F068F8FFF79EFF22
:1006900008BD00000008014010B5002404E0601C03
:1006A000C4B2012001F0DCFC0D48006808B1642CE4
:1006B000F5DB002404E0601CC4B2012001F0D0FC92
:1006C0000748006808B9642CF5DB282001F0C8FC55
:1006D0000348006808B1012010BD0020FCE70000BD
:1006E0001801214270B50024002506E06006040EC2
:1006F000FFF7D2FF0443681CC5B2082DF6DB204685
:1007000070BD7CB505460E4600F028F8FFF75EFF89
:10071000F8B9002405E0FFF7E5FF0DF80400601CC0
:10072000C4B2052CF7DB9DF800009DF801100844C9
:100730009DF8021008449DF8031008449DF8041029
:10074000884208D19DF8000030709DF802002870A2
:1007500001E001207CBD0020FCE7000010B5FFF7A0
:100760006FFF002006490860142001F06BFC012097
:100770000449C1F898011E2001F072FC10BD000070
:100780009801214200002142704770472DE9F04155
:10079000024600250026002000230024002791F8AF
:1007A00003C00CF00F0591F803C00CF0100CBCF165
:1007B000000F03D091F802C04CEA050591F800C083
:1007C000BCF1000F31D0146800202BE04FF0010C79
:1007D0000CFA00F3B1F800C00CEA03069E4220D1E7
:1007E00083004FF00F0C0CFA03F7BC4305FA03FC2F
:1007F0004CEA040491F803C0BCF1280F06D14FF075
:10080000010C0CFA00FCC2F814C00AE091F803C015
:10081000BCF1480F05D14FF0010C0CFA00FCC2F8F6
:1008200010C0401C0828D1D31460B1F800C0BCF13E
:10083000FF0F34DD546800202EE000F1080C4FF06B
:10084000010808FA0CF3B1F800C00CEA03069E4256
:1008500021D183004FF00F0C0CFA03F7BC4305FACB
:1008600003FC4CEA040491F803C0BCF1280F05D145
:1008700000F1080C08FA0CF8C2F8148091F803C0D3
:10088000BCF1480F07D100F1080C4FF0010808FA3D
:100890000CF8C2F81080401C0828CED35460BDE884
:1008A000F0810246002093680B400BB1012000E06C
:1008B000002070474161704701617047014800683E
:1008C000704700002400002010B500244FF40061A0
:1008D0000748FFF7E6FF08B944F001044FF48051E0
:1008E0000348FFF7DEFF08B944F00204204610BDBC
:1008F0000008014070B50446FFF7E0FF0546A54239
:1009000001D32D1B01E0E0430544284670BD0000E3
:1009100001480068704700002800002000BFFEE783
:1009200008B50121042000F0A3FC03208DF802008B
:1009300048208DF803004FF40060ADF800006946D0
:100940000D48FFF723FF4FF48050ADF800006946D3
:100950000948FFF71BFF20210848FFF75AFD084808
:100960000649C86007490548C161074803498860CE
:1009700006490248816108BD000801406800002066
:1009800091090008510A000899090008F50A0008B1
:1009900010B501F0EDFC10BD70B52B4800780128B2
:1009A00000D170BD29480079002842D10120274993
:1009B00008710846407920B1012809D0022837D1B2
:1009C0001EE0224B9A799979987900F06BF92FE023
:1009D0001E4A117AD07901F0CFFB04461B4A917A66
:1009E000507A01F0C9FB0546184A117BD07A01F014
:1009F000C3FB064632462946204600F053F917E06D
:100A0000124A917D507D01F0B7FB04460F4A117EDA
:100A1000D07D01F0B1FB05460C4A917E507E01F07D
:100A2000ABFB064632462946204600F03BF900BFA4
:100A300007E000200549087100221146104600F029
:100A400031F900BFADE700001C0000204400002089
:100A500008B500202649087000221146104600F013
:100A600021F900221146FF2000F01CF9002000901F
:100A700002E00098401C00900098B0F5800FF8D379
:100A80000022FF21104600F00DF90020009002E046
:100A90000098401C00900098B0F5800FF8D3FF221A
:100AA0000021084600F0FEF80020009002E00098C7
:100AB000401C00900098B0F5800FF8D3FF2211463B
:100AC000104600F0EFF801200949087001F05CFCC5
:100AD0000020009002E00098401C00900098B0F5C3
:100AE000800FF8D300221146104600F0DBF808BD55
:100AF0001C0000207047000070B5FFF7E5FE0646B9
:100B0000002499E04E4800EB0410007820B1102832
:100B100013D040282BD11BE046FA04F000F001006E
:100B200050B11020464901EB04110870FFF7C6FED2
:100B3000434901EB0411486019E046FA04F000F063
:100B4000010020B920203E4901EB041108700EE09D
:100B500046FA04F000F0010040B90020384901EBEA
:100B600004114860364901EB0411087000BF00BF52
:100B7000334800EB04100078102805D0304800EB13
:100B800004100078402820D12D4901EB0411486859
:100B9000FFF7B0FE054640F6B83085424AD3FFF76E
:100BA0008DFE274901EB041148604020244901EBE8
:100BB00004110870224800EB0410C06858B32049A3
:100BC00001EB0411C868804734E01D4800EB0410B5
:100BD000007820282ED11A4901EB04114868FFF74C
:100BE00089FE05460020164901EB041148601449AE
:100BF00001EB04110870322D0ED340F6B830854257
:100C00000AD20F4800EB0410806820B10C4901EBB8
:100C10000411886880470DE040F6B830854209D35A
:100C2000074800EB0410C06820B1054901EB04112E
:100C3000C8688047601CC4B2022CFFF663AF70BD69
:100C40006800002070B505460C46012D02D0022D2B
:100C500018D10BE0012C04D140211148FFF72AFEE6
:100C600003E040210E48FFF727FE17E0012C04D1D6
:100C700020210B48FFF71EFE03E020210848FFF764
:100C80001BFE0BE0012C04D140210548FFF712FEAA
:100C900003E040210248FFF70FFE00BF00BF70BD18
:100CA000000C014070B506460C46154600214FF079
:100CB000804000F0C1FD00201B4908601B490870FE
:100CC0001B4908701B490870002E07DD1748067085
:100CD0004FF480711848FFF7EDFD04E04FF4807188
:100CE0001548FFF7E9FD002C06DD1148047080214E
:100CF0001148FFF7DFFD03E080210F48FFF7DCFD1F
:100D0000002D07DD0B4805704FF400710A48FFF70E
:100D1000D1FD04E04FF400710748FFF7CDFD01213C
:100D2000880700F089FD70BD200000201D00002014
:100D30001E0000201F000020000C014000BFFEE745
:100D40007047000070B5002100230F22C47804B35F
:100D5000154C246804F4E064C4F5E064210AC1F190
:100D60000403CA40447804FA03F184781440214310
:100D700009010E4C0678A155047804F01F050124E2
:100D8000AC4005786D11AD0005F1E025C5F80041D6
:100D900009E0047804F01F050124AC40044D0678F6
:100DA000761145F8264070BD0CED00E000E400E04F
:100DB00080E100E070B500240CE0002506E0002092
:100DC000074901EBC5010855681CC5B2802DF6DB4B
:100DD000601CC4B2082CF0DB00F022F970BD0000EA
:100DE0008800002070B50B46CE1701EB5676C6F38F
:100DF000C702CE1701EB5676F610A1EBC606F4B289
:100E00000123A340DDB20E4B03EBC0039B5CDB432D
:100E10000B4E06EBC006B354094B03EBC0039B5CBF
:100E20002B43074E06EBC006B354054B03EBC00340
:100E30009B5CDB43024E06EBC006B35470BD000062
:100E40008800002010B504461CB90021A62000F03F
:100E5000ADF9012C03D10021A72000F0A7F910BDA6
:100E600010B504463CB90021C82000F09FF90021CC
:100E7000A12000F09BF9012C07D10021C02000F037
:100E800095F90021A02000F091F910BD70B50A4637
:100E9000CE1701EB5676C6F3C703CE1701EB567695
:100EA000F610A1EBC606F4B20122A240D5B2054A63
:100EB00002EBC002D25C2A43024E06EBC006F2549B
:100EC00070BD00008800002008B50121082000F056
:100ED000CFF94FF47040ADF8000010208DF80300FA
:100EE00003208DF8020069464B48FFF74FFC0121B3
:100EF000202000F0BDF90420ADF8000010208DF88E
:100F0000030003208DF8020069464448FFF73EFCC9
:100F100004214248FFF7D0FC4FF400513E48FFF750
:100F2000C9FCC82001F08EF84FF400513A48FFF791
:100F3000C3FC0021AE2000F039F90021084600F082
:100F400035F90021102000F031F90021402000F097
:100F50002DF90021812000F029F90021CF2000F097
:100F600025F90021A12000F021F90021C82000F07E
:100F70001DF90021A62000F019F90021A82000F099
:100F800015F900213F2000F011F90021D32000F0D5
:100F90000DF90021084600F009F90021D52000F0E4
:100FA00005F90021802000F001F90021D92000F08E
:100FB000FDF80021F12000F0F9F80021DA2000F01E
:100FC000F5F80021122000F0F1F80021DB2000F0FC
:100FD000EDF80021402000F0E9F80021202000F089
:100FE000E5F80021022000F0E1F800218D2000F05A
:100FF000DDF80021142000F0D9F80021A42000F031
:10100000D5F80021A62000F0D1F80021AF2000F093
:10101000CDF8FFF7CFFE08BD000C014000140140E1
:1010200070B500241CE004F1B001C8B2002100F04A
:10103000BDF80021084600F0B9F80021102000F0AA
:10104000B5F8002508E0084901EBC501085D01215C
:1010500000F0ACF8681CC5B2802DF4DB601CC4B293
:10106000082CE0DB70BD0000880000202DE9FF4F58
:1010700081B080460E461C4600962046E31704EBDE
:101080005373DB1021464FEAE47C04EB5C7C4FEAAF
:10109000EC0CA4EBCC0CBCF1000F02D04FF0010C17
:1010A00001E04FF0000C6344224604EBD27C4FEA8F
:1010B0006C0C03FB0CF303F0FF0B03982038C7B252
:1010C000002547E00C2C07D107EB4700234901EB33
:1010D000800010F805A014E0102C05D1204800EB8A
:1010E000071010F805A00CE0182C07D107EBC7007B
:1010F0001C4901EB800010F805A002E005B0BDE836
:10110000F08F4FF000091FE00AF0800020B1314657
:101110004046FFF7BBFE03E031464046FFF762FE64
:101120004FEA4A604FEA106A701CC6B20098301A43
:10113000A04205D1009E08F1010000F0FF0806E082
:1011400009F1010000F0FF09B9F1080FDCDB00BF75
:10115000681CC5B25D45B5DB00BFCFE700280008BD
:10116000742C000864320008F0B506460F46144699
:101170001D4613E022782B4639463046FFF776FFAE
:10118000284605EBD07106EB6101CEB2C5F18000B7
:10119000B04202DA0026B81CC7B2641C20782028AE
:1011A00002DB20787E28E5DDF0BD000070B5044646
:1011B0000E462EB14FF480411B48FFF77DFB04E043
:1011C0004FF480411848FFF775FB02211648FFF7DE
:1011D00071FB00251BE04FF400411348FFF76AFB49
:1011E00004F0800028B14FF480510F48FFF764FBF2
:1011F00004E04FF480510C48FFF75CFB4FF40041D2
:101200000948FFF759FB6006040E681CC5B2082D9B
:10121000E1DB02210448FFF74FFB4FF48041024815
:10122000FFF74AFB70BD0000000C01407047000052
:1012300029B1064AD2690243044BDA6104E0034A49
:10124000D2698243014BDA6170470000001002400E
:1012500029B1064A12690243044B1A6104E0034AA9
:1012600012698243014B1A6170470000001002406E
:1012700029B1064A92690243044B9A6104E0034A89
:1012800092698243014B9A6170470000001002404E
:1012900029B1064AD2680243044BDA6004E0034AEB
:1012A000D2688243014BDA607047000000100240B0
:1012B00030B500210022002400232D4D6D6805F07B
:1012C0000C0121B1042905D0082923D105E0294DBD
:1012D000056022E0274D05601FE0254D6D6805F48F
:1012E0007012234D6D6805F48034022505EB92429F
:1012F0001CB9214D554305600BE01D4D6D6805F48B
:1013000000351DB11C4D5543056002E0194D554394
:10131000056002E0174D056000BF00BF144D6D6809
:1013200005F0F0010909154D6B5C0568DD4045606D
:101330000F4D6D6805F4E061090A104D6B5C45685E
:10134000DD4085600A4D6D6805F46051C90A0B4D9A
:101350006B5C4568DD40C560054D6D6805F4404136
:10136000890B074D6B5CC568B5FBF3F5056130BDB6
:101370000010024000127A0000093D000000002029
:101380001000002008B501210C20FFF771FF10208C
:101390008DF803004FF47870ADF8000003208DF84D
:1013A000020069461948FFF7F1F910208DF8030093
:1013B0000720ADF8000003208DF8020069461448AC
:1013C000FFF7E4F940211148FFF776FA20210F4892
:1013D000FFF772FA4FF480710C48FFF76DFA802125
:1013E0000A48FFF769FA4FF400710848FFF764FAFA
:1013F00001210748FFF760FA02210548FFF75CFA70
:1014000004210348FFF758FA08BD0000000C014012
:101410000008014070B52548007928B9002211461E
:101420001046FFF73FFC3FE02048407920B10128FB
:1014300009D0022837D11EE01C4B9A799979987906
:10144000FFF730FC2FE0194A117AD07900F094FEB2
:101450000446164A917A507A00F08EFE0546134AE9
:10146000117BD07A00F088FE064632462946204697
:10147000FFF718FC17E00D4A917D507D00F07CFECF
:1014800004460A4A117ED07D00F076FE0546074AE2
:10149000917E507E00F070FE064632462946204678
:1014A000FFF700FC00BF00BF70BD0000440000203B
:1014B00010B52748007800280ADD2648006824492E
:1014C0000978884204D14FF480712348FFF7F4F97A
:1014D00022480078002809DD1E4800681F49097865
:1014E000884203D180211C48FFF7E6F91C480078A8
:1014F00000280ADD1748006819490978884204D194
:101500004FF400711448FFF7D7F912480068B0F59E
:10151000877F1CD300200F4908600D480078002801
:1015200004DD4FF480710C48FFF7C4F90B480078D4
:10153000002803DD80210848FFF7BCF9084800783F
:10154000002804DD4FF400710348FFF7B3F910BD24
:101550001D00002020000020000C01401E00002083
:101560001F000020704710B500F002F810BD000009
:101570000CB50020019000903348006840F48030A2
:101580003149086000BF3048006800F40030009026
:101590000198401C0190009818B90198B0F5A06F0F
:1015A000F1D12948006800F4003010B1012000900A
:1015B00001E0002000900098012843D123480068F2
:1015C00040F01000214908600846006820F0030040
:1015D00008600846006840F0020008601A48406849
:1015E000194948600846406848600846406840F429
:1015F000806048600846406820F47C1048600846D7
:10160000406840F4E81048600846006840F0807088
:10161000086000BF0C48006800F000700028F9D096
:101620000948406820F003000749486008464068C0
:1016300040F00200486000BF0348406800F00C0022
:101640000828F9D10CBD0000001002400020024023
:1016500010B500F07BFF10BD10B51348006840F0D6
:1016600001001149086008464068104908400E49C9
:101670004860084600680E4908400B490860084663
:10168000006820F4802008600846406820F4FE00CE
:1016900048604FF41F008860FFF765FF4FF000605F
:1016A0000449086010BD0000001002400000FFF86F
:1016B000FFFFF6FE08ED00E01FB501210846FFF729
:1016C000B7FD4FF0804000F0C3F82320ADF80800CC
:1016D0006320ADF804000020ADF80A00ADF8060064
:1016E00001A94FF0804000F0C1F90121880700F006
:1016F0009DF801221146900700F0AFF91C208DF8EB
:10170000000000208DF8010003208DF80200012068
:101710008DF803006846FFF715FB002003490860B9
:1017200000214FF0804000F087F81FBD200000200E
:1017300010B50121880700F07FF950B10121880719
:1017400000F077F803480068401C02490860FFF782
:10175000AFFE10BD200000207FB505460C460121DC
:101760000220FFF765FD194800F072F8ADF8085047
:10177000ADF804400020ADF80A00ADF8060001A95C
:10178000124800F073F90121104800F04FF80122CF
:1017900011460E4800F061F91D208DF80000002070
:1017A0008DF8010004208DF8020001208DF803005F
:1017B0006846FFF7C7FA0020054908600549086038
:1017C0000121024800F038F87FBD0000000400400D
:1017D000240000202800002010B50121104800F04E
:1017E0002BF9D8B101210E4800F023F80D4800680C
:1017F000401C0C49086008460068FA21B0FBF1F271
:1018000001FB120050B908480068401C06490860F6
:10181000084600680C2801D10020086010BD0000B7
:10182000000400402400002028000020CA43028257
:101830007047CA430282704721B1028842F0010218
:10184000028004E002884FF6FE731A40028070475F
:1018500010B504466848844208D10121C014FFF73E
:1018600017FD0021E014FFF713FDC4E0B4F1804F31
:1018700008D101210846FFF7EBFC00210120FFF70A
:10188000E7FCB8E05D48844208D101210220FFF75F
:10189000DFFC00210220FFF7DBFCACE0584884426B
:1018A00008D101210420FFF7D3FC00210420FFF719
:1018B000CFFCA0E05348844208D101210820FFF763
:1018C000C7FC00210820FFF7C3FC94E04E48844287
:1018D00008D101211020FFF7BBFC00211020FFF7E9
:1018E000B7FC88E04948844208D101212020FFF755
:1018F000AFFC00212020FFF7ABFC7CE04448844291
:1019000008D101214014FFF7C3FC00216014FFF748
:10191000BFFC70E03F48844209D10121C804FFF7B1
:10192000B7FC00214FF40020FFF7B2FC63E03A4817
:10193000844209D101210805FFF7AAFC00214FF4D8
:101940008010FFF7A5FC56E03448844209D10121FC
:101950004805FFF79DFC00214FF40010FFF798FCAD
:1019600049E02F48844208D101214020FFF770FC54
:1019700000214020FFF76CFC3DE02A48844208D15A
:1019800001218020FFF764FC00218020FFF760FC2C
:1019900031E02548844208D101218015FFF758FC29
:1019A0000021A015FFF754FC25E02048844209D10E
:1019B00001210804FFF76CFC00214FF48030FFF791
:1019C00067FC18E01A48844209D101214804FFF756
:1019D0005FFC00214FF40030FFF75AFC0BE0154884
:1019E000844208D101218804FFF752FC00214FF402
:1019F0008020FFF74DFC10BD002C0140000400408A
:101A000000080040000C004000100040001400409E
:101A100000340140004C014000500140005401409E
:101A200000180040001C0040002000400040014021
:101A3000004401400048014030B502460020002328
:101A40000024158A05EA0103958905EA010413B10A
:101A50000CB1012000E0002030BD1AB183890B4396
:101A6000838102E083898B4383817047002202884F
:101A70001D4B98420ED01D4B98420BD0B0F1804FB9
:101A800008D01B4B984205D01A4B984202D01A4BF3
:101A9000984204D14FF68F731A404B881A43174B64
:101AA000984207D0164B984204D04FF6FF431A4095
:101AB000CB881A4302808B8883850B8803850A4B69
:101AC00098420BD0094B984208D00E4B984205D053
:101AD0000D4B984202D00D4B984201D10B7A0386F0
:101AE0000123838270470000002C01400034014034
:101AF0000004004000080040000C004000100040BE
:101B000000140040004001400044014000480140F2
:101B100010B540F22551044800F008F918B1024808
:101B200000F0C0F9C4B210BD0038014010B586B055
:101B30000446B4F5E13F02D9002006B010BD0121F2
:101B40000420FFF795FB01218803FFF791FB4FF479
:101B50000070ADF8040018208DF8070003208DF800
:101B6000060001A92248FEF711FE4FF48060ADF88F
:101B7000040004208DF8070003208DF8060001A959
:101B80001B48FEF703FE02940020ADF80C00ADF8F0
:101B90000E00ADF81000ADF814000C20ADF81200E6
:101BA00002A9144800F012F9012240F2255111480F
:101BB00000F0E6F8002240F227710E4800F0E0F84D
:101BC00040210C4800F090F825208DF800000020FE
:101BD0008DF8010001208DF802008DF803006846A1
:101BE000FFF7B0F80121034800F087F80120A4E7CF
:101BF000000801400038014010B540F22551064868
:101C000000F094F830B1044800F04CF9C4B220461A
:101C100000F0A8FC10BD00000048004010B586B0E0
:101C20000446B4F5E13F02D9002006B010BD012101
:101C30000820FFF71DFB01218804FFF7F9FA4FF494
:101C40008060ADF8040018208DF8070003208DF89F
:101C5000060001A92248FEF799FD4FF40060ADF897
:101C6000040004208DF8070003208DF8060001A968
:101C70001B48FEF78BFD02940020ADF80C00ADF878
:101C80000E00ADF81000ADF814000C20ADF81200F5
:101C900002A9144800F09AF8012240F22551114897
:101CA00000F06EF8002240F227710E4800F068F84C
:101CB00040210C4800F018F827208DF80000002083
:101CC0008DF801008DF8020001208DF803006846B0
:101CD000FFF738F80121034800F00FF80120A4E7CE
:101CE000000C01400048004001F40072B2F5007F92
:101CF00000D100BFCA430280704721B1828942F4FB
:101D00000052828104E082894DF6FF731A4082817D
:101D1000704702460020B1F5007F00D100BF138854
:101D20000B400BB1012000E00020704770B5024667
:101D3000002400230025002040F66A16B14200D19D
:101D400000BFC1F3421501F01F03012606FA03F399
:101D5000012D02D19689334006E0022D02D1168A68
:101D6000334001E0968A33400C12012606FA04F44F
:101D70001688344013B10CB1012000E0002070BD82
:101D8000F0B50346002400260025002040F66A171F
:101D9000B94200D100BF1846C1F3421401F01F063A
:101DA000012707FA06F5012C01D10C3004E0022CC2
:101DB00001D1103000E014301AB107682F430760DA
:101DC00002E00768AF430760F0BD00002DE9F0476F
:101DD00086B005460E460024A24600BFA146002755
:101DE000B08900B100BF2F462C8A4CF6FF7004402A
:101DF000F08804432C82AC894EF6F3100440B0887E
:101E000031890843718908430443AC81AC8A4FF699
:101E1000FF400440B0890443AC8201A8FFF748FAB0
:101E20001F48874202D1DDF810A001E0DDF80CA0C8
:101E3000A88900F4004040B10AEBCA0000EB0A1088
:101E400031684900B0FBF1F807E00AEBCA0000EB8B
:101E50000A1031688900B0FBF1F86420B8FBF0F09B
:101E600004012009642101FB1089A88900F40040C5
:101E700040B1322000EBC900B0FBF1F000F00700E8
:101E8000044308E0322000EB09106421B0FBF1F0BC
:101E900000F00F0004432C8106B0BDE8F08700007D
:101EA0000038014001468888C0F308007047C1F33C
:101EB000080282807047000010B50446214605489C
:101EC000FFF7F5FF00BF40210248FFF722FF00287F
:101ED000F9D010BD0048004000BFFEE730380A28A6
:101EE00001D20120704700207047000010B507485C
:101EF000007800EB80004100012000F0F7F9044871
:101F00000178022000F0F2F910BD0000140000205A
:101F1000150000202DE9F05F04463349E01C11F85C
:101F20000080B8F10F0F5AD2DFE808F0080B0E114D
:101F30001C2024594A59595959594D0000F000F9AB
:101F40004EE000F059FA4BE000F0F2F848E0264984
:101F5000A01D085C2549087000220321084600F0F6
:101F6000DBFB3DE001202249087039E001202149D6
:101F7000087035E01C49601D095C1B4A201D105C7F
:101F800041EA0027002518E0A01D2844801C1649BE
:101F9000085C4FF6FF7101EA0026A01D2844C01C12
:101FA0001149085C304486B22144891D481900F06B
:101FB00023F88346301D284485B2BD42E4DB0FE0A0
:101FC000FFF794FF0CE00849A01D11F80090E01DF8
:101FD00011F800A05146484600F00CFB00E000BF9D
:101FE00000BFBDE8F09F0000080500203F00002072
:101FF0003D0000203E0000202DE9F04704462678F1
:1020000094F80180A0784FF6FF7101EA0025E0788E
:10201000284485B2304600F073F80746084800EBC4
:1020200047004078404502D00020BDE8F0872A46AE
:10203000211D304600F050F881464846F5E7000083
:10204000C03F000810B5044603E04FF47A7000F07A
:1020500007F8201EA4F101018CB2F6D110BD0000DA
:1020600070B50346194803604821B1F1807F00D361
:102070001DE021F07F40401E4FF0E02250615017DC
:102080000F22002807DA1407260E114C00F00F0566
:102090002D1F665503E01407250E0E4C255400BF76
:1020A00000204FF0E02290610720106100BF00BFC8
:1020B000064800680028FBD14FF0E020006920F0BE
:1020C00001004FF0E021086170BD00001800002001
:1020D00018ED00E000E400E0034600BF00BF00BFD1
:1020E000704730B502460020002305E012F8015B7E
:1020F0002C18E0B25C1CA3B28B42F7DB30BD0000B1
:1021000070B5054600F012F80646002407E00648C0
:1021100010F81400A84200D103E0601CC4B2B4421D
:10212000F5DB00BF204670BDC03F000802207047AD
:1021300010B5002422460321022000F0EDFA10BD64
:1021400010B500240B48007840B90021204600F06B
:10215000D7F9C4B201200749087004E001212046E4
:1021600000F0CEF9C4B222460321002000F0D4FAD8
:1021700010BD0000400000200246302A05DB392A4D
:1021800003DCA2F13003DAB20EE0412A05DB462A75
:1021900003DCA2F13703DAB206E0612A04DB662A27
:1021A00002DCA2F15703DAB202F00F00000130297D
:1021B00005DB392903DCA1F13003D9B20EE0412956
:1021C00005DB462903DCA1F15703D9B206E06129FA
:1021D00004DB662902DCA1F15703D9B201F00F0339
:1021E0001843704786B0002003900490059000903B
:1021F00001900290FEF768FE0020FEF723FE00200B
:10220000FEF72EFEFEF70CFFFEF7D4FD18232FA2DB
:1022100014210020FEF7A8FFFEF702FF4FF4FA702A
:10222000FFF710FF00BFFEF71DFA0028FBD14FF4A7
:102230001650FFF77BFC4FF41650FFF7EFFCFFF74B
:102240003BFA40F2CF216320FFF786FAFEF768FBE6
:10225000FFF798F800F0B8F9FFF7DCF8FEF7AAFDF1
:1022600018231DA200213C20FEF77EFF18231BA28D
:102270001E213C20FEF778FF26E000F0BFF9FEF7B4
:102280003BFC00F06DFA16491648FEF73AFA15487D
:10229000027815A103A8FDF7BDFF1148027812A12D
:1022A0006846FDF7B7FF182303AA00210846FEF78A
:1022B0005BFF18236A461E210020FEF755FFFEF73C
:1022C000AFFE3220FFF7BEFED7E7000057656C6314
:1022D0006F6D652100000000430000002500000034
:1022E00015000020140000202534640070B5054658
:1022F0000C4600261A480078012800D170BD2946F6
:10230000304600F0FDF806460221304600F0F8F8AD
:1023100006460021304600F0F3F806460421304618
:1023200000F0EEF80646210E304600F0E9F80646C9
:10233000C4F30741304600F0E3F80646C4F3072132
:10234000304600F0DDF80646E1B2304600F0D8F83D
:10235000064632460321072000F0DEF90120CDE7D2
:102360003C00002001480078704700003F0000203A
:1023700010B500200349087000220321042000F05A
:10238000CBF910BD3D00002010B5002203210E2026
:1023900000F0C2F910BDF0B505460E4613462A46B8
:1023A000344605B10EB90020F0BDA24202D9E018B2
:1023B000904208D2002103E0605C5054481C81B276
:1023C0009942F9DB07E0194603E0481E275C1754E1
:1023D00081B20029F9DC2846E6E70146002209B966
:1023E00000207047002200E0521C11F8013B002B36
:1023F000FAD11046F5E700003EB500240020009019
:102400000190029025A0FFF7E8FF85B22A4623A19C
:10241000204600F061F8C4B222A0FFF7DEFF85B2CB
:102420002A4620A1204600F057F8C4B222A0FFF7A8
:10243000D4FF85B22A4620A1204600F04DF8C4B250
:102440001FA0FFF7CAFF85B22A461DA1204600F053
:1024500043F8C4B21CA0FFF7C0FF85B22A461AA1F8
:10246000204600F039F8C4B219A0FFF7B6FF85B2D4
:102470002A4617A1204600F02FF8C4B215A0FFF796
:10248000ACFF85B22A4613A1204600F025F8C4B25D
:1024900022460321012000F03FF93EBD7B2270223D
:1024A0003A22000068387871676177686C65616707
:1024B0006A69626600000000222C2276223A22001D
:1024C000312E302E30000000222C226D223A0000E6
:1024D000320000007D0000002DE9F04104460E4668
:1024E0001546064807192A4631463846FFF753FF76
:1024F000601984B22046BDE8F08100004405002048
:10250000024B1A181170431C98B270474405002002
:102510000B4909680B4A126891420FD008490A68B2
:1025200009498A4202D31739054A116004490968EA
:10253000087803490968491C014A11607047000086
:1025400038000020340000203E05002004480068C8
:1025500020B103480068401E014908607047000030
:102560001800002012490968124A1268891A0129C4
:102570001CD0104909680E4A1268914206D90D49CB
:1025800009680B4A1268891A17290FD209490A6883
:1025900009498A4202D31739064A11600549096878
:1025A000087004490968491C024A1160704700001C
:1025B00038000020340000203E05002010B50446FD
:1025C0002046FFF779FC10BD05480649086006491A
:1025D0000860002005490870FF2005490870704711
:1025E0002705002034000020380000203C00002097
:1025F0003F00002008B901B100BF704770B500244A
:10260000002509E0FFF784FF38490A880988491C3A
:10261000364B198036498854344800881F2803D225
:1026200000F0E0F80028EDDC30480088072800DAE8
:1026300070BD42E02E48005D552802D0601C84B277
:102640003BE02B49601C085CAA2802D0601C84B2C5
:1026500033E02749A01C085C10B1A01C84B22CE018
:102660002349201D085C4FF6FF7101EA002520492F
:10267000601D085CC01D284485B2262D02D9E01CCF
:1026800084B21AE019480088001BA84200DA19E059
:102690006A1E91B2164A1019FFF723FD6119491EEF
:1026A000134A515C884202D0E01C84B205E0204607
:1026B000FFF730FC601984B200BF0C480088001B93
:1026C0000728B7DA00BF09480088001B07490880BF
:1026D00008460088002806DD0548011903480288DD
:1026E0000348FFF758FE00BFA2E7000030000020BB
:1026F0000805002070B504460D4604B105B970BD4B
:1027000003E02078FFF75AFF641C281EA5F10101A1
:102710008DB2F6D100BFF2E72DE9F04105460E4635
:102720001446002755200D490870AA204870084615
:102730008670C570201208714C71E01D84B2601E55
:1027400081B20648FFF7CDFC0746601E03490F54CF
:1027500021460248FFF7CEFFBDE8F0813E0500208C
:1027600070B5FFF7FFFD054635B1012D17D0022DDD
:1027700026D0032D2ED128E0FEF7CAF8044600EB40
:10278000D4704010A4EB400020B901210846FEF7A8
:1027900059FA03E000210120FEF754FA1FE0FEF78A
:1027A000B7F820B901210846FEF74CFA07E0FEF71A
:1027B000AFF8062803D100210120FEF743FA0EE00E
:1027C00000210120FEF73EFA09E001210846FEF74C
:1027D00039FA04E000210120FEF734FA00BF00BFFF
:1027E00070BD00000448006804490968884201D0AF
:1027F000012070470020FCE7340000203800002052
:1028000000000000000000000000000000000000C8
:102810003F40000000000000000030004000300099
:102820004000000009000BC03D000BC03D00090046
:1028300018C024407FE0224031800000180024C0EE
:102840001B000D803240018003801C4027401C800B
:102850000740004010006000000000000000000081
:102860000000000000001F802040402000004020A9
:1028700020401F8000000000090006001F800600A5
:1028800009000000040004003F8004000400000070
:1028900000100060000000000000000004000400C0
:1028A00004000400040000000000004000000000DC
:1028B00000000000002001C00600380040000000B9
:1028C0001F802040204020401F800000000010405A
:1028D0003FC000400000000018C0214022402440BA
:1028E0001840000010802040244024401B8000003D
:1028F00002000D0011003FC0014000003C80244058
:1029000024402440238000001F8024402440344081
:10291000038000003000200027C0380020000000A5
:102920001B802440244024401B8000001C0022C047
:10293000224022401F8000000000000008400000EC
:102940000000000000000000046000000000000023
:10295000000004000A001100208040400900090026
:10296000090009000900000000004040208011001B
:102970000A00040018002000234024001800000072
:102980001F802040274029401F400000004007C012
:1029900039000F0001C0004020403FC024402440C7
:1029A0001B8000001F80204020402040308000001D
:1029B00020403FC0204020401F80000020403FC0FA
:1029C00024402E4030C0000020403FC024402E0054
:1029D000300000000F0010802040224033800200B1
:1029E00020403FC0040004003FC020402040204061
:1029F0003FC02040204000000060202020203FC039
:102A00002000200020403FC024400B0030C0204068
:102A100020403FC020400040004000C03FC03C007C
:102A200003C03C003FC0000020403FC00C402300DA
:102A30003FC020001F802040204020401F80000019
:102A400020403FC024402400180000001F80214087
:102A5000214020E01FA0000020403FC0244026006D
:102A600019C0004018C0244024402240318000009A
:102A7000300020403FC020403000000020003F8058
:102A8000004000403F80200020003E0001C00700C1
:102A900038002000380007C03C0007C038000000A4
:102AA000204039C0060039C02040000020003840D6
:102AB00007C0384020000000304021C02640384088
:102AC00020C00000000000007FE040204020000007
:102AD000000070000C000380004000000000402057
:102AE00040207FE0000000000000200040002000A7
:102AF0000000000000100010001000100010001076
:102B00000000000040000000000000000000028003
:102B10000540054003C0004020003FC00440044081
:102B200003800000000003800440044006400000D1
:102B300000000380044024403FC0004000000380A8
:102B40000540054003400000000004401FC0244031
:102B500024402000000002E00550055006500420EB
:102B600020403FC00440040003C000400000044077
:102B700027C000400000000000100010041027E0F3
:102B80000000000020403FC00140070004C0044096
:102B9000204020403FC000400040000007C004002B
:102BA00007C0040003C00000044007C00440040044
:102BB00003C0004000000380044004400380000084
:102BC000041007F00450044003800000000003805C
:102BD0000440045007F00010044007C00240040005
:102BE00004000000000006400540054004C000004D
:102BF000000004001F800440004000000400078023
:102C00000040044007C000400400070004C00180E9
:102C100006000400060001C0070001C00600000015
:102C2000044006C0010006C0044000000410071064
:102C300004E00180060004000000044005C00640D6
:102C4000044000000000000004007BE04020000081
:102C5000000000000000FFF0000000000000402025
:102C60007BE00400000000004000800040002000E5
:102C700020004000000000000000000000000000F4
:102C8000000000000000000000001FCC000C00004D
:102C90000000000000000800300060000800300064
:102CA00060000000022003FC1E20022003FC1E2006
:102CB0000220000000000E1811043FFF10840C7861
:102CC000000000000F0010840F3800C0077818843F
:102CD0000078000000780F8410C411240E9800E4DE
:102CE0000084000808006800700000000000000078
:102CF0000000000000000000000007E01818200499
:102D000040020000000040022004181807E0000004
:102D1000000000000240024001800FF001800240EC
:102D2000024000000080008000800FF800800080DA
:102D3000008000000001000D000E000000000000F7
:102D40000000000000000080008000800080008003
:102D5000008000800000000C000C0000000000005B
:102D6000000000000000000600180060018006005E
:102D700018002000000007F00808100410040808DC
:102D800007F000000000080408041FFC0004000411
:102D90000000000000000E0C1014102410441184D8
:102DA0000E0C000000000C1810041104110412880D
:102DB0000C700000000000E00320042408241FFC25
:102DC0000024000000001F981084110411041088D2
:102DD00010700000000007F0088811041104188822
:102DE0000070000000001C00100010FC13001C000C
:102DF0001000000000000E381144108410841144AB
:102E00000E38000000000700088C104410440888A9
:102E100007F00000000000000000030C030C00009D
:102E2000000000000000000000010106000000009A
:102E3000000000000000008001400220041008088B
:102E400010040000022002200220022002200220A2
:102E500002200000000010040808041002200140B5
:102E60000080000000000E001200100C106C10809A
:102E70000F00000003E00C1813E4142417C4082802
:102E800007D000000004003C03C41C40074000E4DD
:102E9000001C000410041FFC1104110411040E880E
:102EA0000070000003E00C18100410041004100857
:102EB0001C10000010041FFC10041004100408086B
:102EC00007F0000010041FFC1104110417C41004C3
:102ED0000818000010041FFC1104110017C0100096
:102EE0000800000003E00C181004100410441C78C3
:102EF0000040000010041FFC10840080008010843B
:102F00001FFC10040000100410041FFC1004100427
:102F10000000000000030001100110011FFE10005E
:102F20001000000010041FFC110403801464181C1E
:102F30001004000010041FFC10040004000400042E
:102F4000000C000010041FFC1F0000FC1F001FFCF1
:102F50001004000010041FFC0C04030000E0101813
:102F60001FFC100007F008081004100410040808E3
:102F700007F0000010041FFC1084108010801080E7
:102F80000F00000007F0081810241024101C080A75
:102F900007F2000010041FFC1104110011C01130D1
:102FA0000E0C000400000E1C110410841084104448
:102FB0001C3800001800100010041FFC1004100042
:102FC0001800000010001FF8100400040004100492
:102FD0001FF8100010001E0011E0001C007013808C
:102FE0001C0010001FC0103C00E01F0000E0103C5F
:102FF0001FC000001004180C163401C001C01634A4
:10300000180C100410001C00130400FC13041C0016
:10301000100000000804101C1064108413041C0429
:10302000101800000000000000007FFE4002400277
:1030300040020000000030000C0003800060001C13
:103040000003000000004002400240027FFE00003A
:103050000000000000000000200040004000400090
:10306000200000000001000100010001000100013A
:1030700000010001000040004000200000000000AE
:1030800000000000000000980124014401440144B4
:1030900000FC000410001FFC0088010401040088EB
:1030A00000700000000000700088010401040104A9
:1030B000008800000000007000880104010411086D
:1030C0001FFC0004000000F80144014401440144D5
:1030D00000C800000000010401040FFC11041104E9
:1030E00011001800000000D601290129012901C999
:1030F0000106000010041FFC00840100010001040F
:1031000000FC000400000104190419FC0004000480
:10311000000000000000000300010101190119FE78
:103120000000000010041FFC0024004001B4010C4A
:10313000010400000000100410041FFC000400043F
:1031400000000000010401FC0104010001FC010475
:10315000010000FC010401FC0084010001000104E5
:1031600000FC0004000000F8010401040104010453
:1031700000F80000010101FF00850104010400883E
:1031800000700000000000700088010401040105C7
:1031900001FF00010104010401FC0084010401009D
:1031A00001800000000000CC01240124012401243E
:1031B0000198000000000100010007F8010401046B
:1031C00000000000010001F80004000400040108F0
:1031D00001FC0004010001800170000C001001607E
:1031E0000180010001F0010C003001C00030010C31
:1031F00001F0010000000104018C00740170018CD9
:1032000001040000010101810171000E001801603C
:103210000180010000000184010C0134014401849B
:10322000010C0000000000000000000001003EFC56
:10323000400240020000000000000000FFFF00000C
:10324000000000000000400240023EFC01000000BF
:10325000000000000000600080008000400040008E
:10326000200020000000000000000000000000001E
:10327000000000000000000000000000000000004E
:10328000000000000000000000000000000000003E
:10329000000000000000000F80380FFE380F80385B
:1032A000000000000000000000000000000000001E
:1032B00000000100000600000C0000380000310092
:1032C000000600000C000038000030000000000084
:1032D0000000000061800067F807F980006180004D
:1032E00061800061800061800067F807F9800061FB
:1032F0008000000000000000000001C0E003E0F0DA
:103300000630080418081FFFFE040E080787F003A4
:1033100081E000000000000001F000060C00040441
:1033200008060C7001F9C0000E00003BE000EC182C
:10333000070808040C180003E00000000001E0008A
:1033400007F003F818041C0804170807E1D003C0AD
:10335000E00023B0003C080020080000100000003E
:103360000000000100003100003200001C000000DD
:10337000000000000000000000000000000000004D
:10338000000000000000000000000000000000003D
:10339000000000007F0001FFC00780F00C00181043
:1033A00000042000020000000000002000021000C5
:1033B000040C00180780F001FFC0007F000000002F
:1033C00000000000000000000000000000000000FD
:1033D0004200006600006600003C0000180003FF89
:1033E000C0001800003C00006600006600004200BB
:1033F00000000000080000080000080000080000AD
:10340000080001FFC00008000008000008000008D4
:103410000000080000000000000100003100003240
:1034200000001C0000000000000000000000000080
:10343000000000000000000000000000080000087C
:103440000000080000080000080000080000080054
:103450000008000008000008000000000000000054
:1034600000000000380000380000380000000000B4
:10347000000000000000000000000000000000004C
:1034800000000000000600001C0000700001800029
:103490000E0000380000C0000700001C00003000D3
:1034A00000000000000000007F8001FFE00380704A
:1034B00006001804000804000806001803807001C4
:1034C000FFE0007F8000000000000000000001001D
:1034D0000801000801000803FFF807FFF8000008D2
:1034E00000000800000800000000000000000001CB
:1034F000C03802C0580400980401180402180404DB
:1035000018061C1803F81801E0F80000000000007D
:1035100000000001C0E003C0F00400080408080433
:10352000080806180803F41801E7F00001E000009D
:1035300000000000000000000300000D000011006A
:1035400000610000810803010807FFF80FFFF80081
:1035500001080001080000000000000000E007FC76
:10356000D0060808061008061008061008061838C5
:10357000060FF00607C00000000000000000000079
:103580003F8001FFE0038430020818041008041093
:1035900008041008071810030FF00007C00000000F
:1035A00000000000000003C0000700000600000645
:1035B00000F80607F806180006E0000700000600FD
:1035C0000000000000000001E1E003F7F006341005
:1035D000041808041808040C08040C08061618033C
:1035E000F3F001C1E000000000000000F80003FC5F
:1035F0003003063804020804020804020804041018
:103600000308F001FFC0007F000000000000000080
:103610000000000000000000000000007038007092
:1036200038007038000000000000000000000000BA
:10363000000000000000000000000000000000008A
:10364000301A00301C0000000000000000000000E4
:10365000000000000000000000000008000014004E
:103660000022000041000080800100400200200490
:1036700000100800080000000000000021000021E8
:103680000000210000210000210000210000210095
:1036900000210000210000210000000000000000C7
:1036A0000000080008040010020020010040008013
:1036B000800041000022000014000008000000000B
:1036C00000000003C00004C0000400000800380827
:1036D0000F380808380810000C300007E00003C05D
:1036E00000000000000000003F8000FFE003807049
:1036F000020F1006708804C088048308047F8802C3
:10370000C09003012000FE400000080000180001E6
:10371000F8003E0801C20007020007E20000FE00B8
:10372000001FC80001F80000380000080400080766
:10373000FFF807FFF804080804080804080804084C
:103740000806180803F41801E7F00001E000000083
:10375000000000003F8001FFE003807002001804B9
:103760000008040008040008040010060020078078
:10377000C000000004000807FFF807FFF804000875
:1037800004000804000804001802001003807001FF
:10379000FFE0007F8000000004000807FFF807FF3B
:1037A000F8040808040808040808040808043E0887
:1037B000040008060018010060000000040008076B
:1037C000FFF807FFF80408080408000408000408CC
:1037D00000043E000600000600000180000000001A
:1037E000000000003F8001FFE00380700600180425
:1037F00000080402080402080203F00783F0000234
:103800000000020004000807FFF807FFF80408089A
:10381000000800000800000800000800040808076D
:10382000FFF807FFF8040008000000000000040093
:103830000804000804000807FFF807FFF804000860
:103840000400080400080000000000000000000060
:10385000000600000700000104000104000104004C
:103860000307FFFE07FFFC04000004000004000043
:1038700004000807FFF807FFF8040C080018000010
:103880003E0004C7800503C80600F80400380400A1
:103890001800000804000807FFF807FFF8040008F4
:1038A00000000800000800000800000800000800F0
:1038B000001800006000000004000807FFF80780FF
:1038C0000807FC00007FC00003F80007C000780074
:1038D00007800807FFF807FFF8040008040008073E
:1038E000FFF807000803C00000E000003800001ED9
:1038F000000007000001C00400F007FFF80400000A
:10390000000000007F8001FFE003807006001804C3
:10391000000804000806001803003001FFE0007FE3
:103920008000000004000807FFF807FFF8040408FF
:10393000040400040400040400040400060C000352
:10394000F80001F000000000000000007F8001FF8F
:10395000E00380700600880400880400C806003C6C
:1039600003003E01FFE6007F84000000040008071A
:10397000FFF807FFF8040808040800040C00040F0F
:1039800000040BC00610F003F03801E00800000846
:1039900000000001E0F803F03006301004180804BD
:1039A0001808040C08040C080206180207F0078126
:1039B000E000000001800006000004000004000098
:1039C00004000807FFF807FFF804000804000004DB
:1039D000000006000001800004000007FFE007FF70
:1039E000F0040018000008000008000008000008AB
:1039F00000000804001007FFE004000004000006B7
:103A0000000007E00007FE00041FE00001F80000CE
:103A1000380001E0043E0007C0000600000400007A
:103A200004000007E00007FFC0041FF80007C007FC
:103A3000F80007FF80043FF80007C004F800070003
:103A40000004000000000004000806001807C07809
:103A500005F1C8003E00001F800463E80780F806F7
:103A600000180400080000000400000600000780A1
:103A70000007E008047C08001FF80007F800180899
:103A800004E0080700000600000400000000000138
:103A900000080600380400F80403E8040F08047C5A
:103AA0000805F00807C008070018040060000000BF
:103AB0000000000000000000000000000000003FC7
:103AC000FFFE200002200002200002200002200051
:103AD00002000000000000000000080000070000D5
:103AE00000C0000038000006000001C000003000E7
:103AF000000E000001000000000000000000200097
:103B0000022000022000022000022000023FFFFEEF
:103B100000000000000000000000000000000000A5
:103B2000000000000008000010000030000020002D
:103B3000003000001000000800000000000000003D
:103B40000000010000010000010000010000010070
:103B50000001000001000001000001000001000060
:103B60000100000100000000000000000020000033
:103B70002000001000001000000000000000000005
:103B800000000000000000000000000000F000192C
:103B9000F8001B1800220800260800240800241042
:103BA000003FF8001FF800000800001800000004A3
:103BB000000007FFF80FFFF00018180010080020A1
:103BC00008002008003018001FF0000FC00000009F
:103BD0000000000007C0001FF0001830002008009F
:103BE0002008002008003C08001C100000600000B5
:103BF000000000000000000007C0001FF00038189F
:103C000000200800200800200804101007FFF80F0B
:103C1000FFF000001000000000000000000000079E
:103C2000C0001FF0001230002218002208002208F5
:103C3000003208001E10000E2000000000000000EE
:103C4000200000200800200801FFF803FFF80620EC
:103C500008042008042008072000030000000000DA
:103C600000000000000E000E6E001FF30031B100D6
:103C700020B10020B1003191001F13002E1E002042
:103C80000E00300000000004000807FFF80FFFF8E6
:103C9000001008002000002000002008003FF8006D
:103CA0001FF80000080000000000000000000020D5
:103CB00008002008002008063FF8063FF80000082A
:103CC00000000800000800000000000000000000E4
:103CD000000000000300000300200100200100207C
:103CE00003063FFE063FFC0000000000000000004D
:103CF00000000004000807FFF80FFFF8000188002B
:103D00000300002FC00038F8002038002008000011
:103D10000800000000000000000004000804000883
:103D200004000807FFF80FFFF80000080000080073
:103D30000008000000000000002008003FF8003FDD
:103D4000F8001008002000003FF8003FF8001008BD
:103D5000002000003FF8003FF800000800000000CD
:103D60002008003FF8003FF8001008001000002075
:103D700000002008003FF8001FF8000008000000C5
:103D80000000000007C0000FF000183000300800ED
:103D90002008002008003008001830000FF000074D
:103DA000C0000000000000002001003FFF003FFFB6
:103DB0000010110020090020080020080030380001
:103DC0001FF0000FC00000000000000007C0001F2F
:103DD000F000381800200800200800200900101109
:103DE000001FFF003FFF000001000000002008004E
:103DF0002008002008003FF8003FF80008080010E5
:103E00000800200800200000300000300000000002
:103E1000000000000000000C78001E1800330800AD
:103E200023080021080021880021980030F0003884
:103E300060000000000000002000002000002000C2
:103E400000FFF003FFF80020080020080020080011
:103E50000030000000000000000000002000003FD3
:103E6000F0007FF800001800000800000800201093
:103E7000003FF8007FF0000010000000000000008C
:103E80002000003000003C00003F800023F00000D4
:103E900078000070002380003C000030000020000B
:103EA000002000003C00003FE00023F80000E0009C
:103EB0002700003E00003FE00021F80001E0003E46
:103EC0000000200000000000200800200800383812
:103ED000003E680027800003C8002CF80038380036
:103EE0002018002008000000000000002000003022
:103EF00003003C01003F830023EC0000700023809E
:103F0000003C000020000020000000000000000035
:103F100000000038080020380020F80023E8002FB7
:103F200088003E08003808002018000070000000DB
:103F30000000000000000000000000000000000081
:103F400008000014001FF7FC3000062000020000EB
:103F50000000000000000000000000000000000061
:103F6000000000000000FFFFFF0000000000000054
:103F70000000000000000000000000000000200021
:103F8000023000061FF7FC001400000800000000CB
:103F90000000000000000000000000000000001809
:103FA0000000600000400000400000200000100001
:103FB000000800000400000400000C0000100000D5
:103FC00001020202E43F000800000020440000005B
:103FD0006C0100082840000844000020940B0000F9
:103FE000880100080000000001020304010203042C
:103FF000060708090204060800000000000000008F
:1040000000000000000000000000000000000000B0
:1040100000000000000000000000000000000000A0
:08402000000000000000000098
:0400000508000131BD
:00000001FF
