:020000040800F2
:10000000600A0020D5010008C1050008B9050008F4
:10001000BD050008E1030008EF0A00080000000029
:1000200000000000000000000000000005060008BD
:10003000E503000800000000C3050008F106000801
:10004000EF010008EF010008EF010008EF010008D0
:10005000EF010008EF010008EF010008EF010008C0
:10006000EF010008EF010008EF010008EF010008B0
:10007000EF010008EF010008EF010008EF010008A0
:10008000EF010008EF010008EF010008EF01000890
:10009000EF010008EF010008EF010008E903000884
:1000A000EF010008EF010008EF010008EF01000870
:1000B000590700087107000829080008EF01000827
:1000C000EF010008EF010008EF010008EF01000850
:1000D000EF010008410A0008EF010008EF010008E5
:1000E000EF010008EF010008EF010008EF01000830
:1000F000EF010008EF010008EF010008EF01000820
:10010000EF010008EF01000841080008EF010008B6
:10011000EF010008EF010008EF010008EF010008FF
:10012000EF010008EF010008EF010008EF010008EF
:1001300000F002F800F03FF80AA090E8000C8244BA
:100140008344AAF10107DA4501D100F034F8AFF297
:10015000090EBAE80F0013F0010F18BFFB1A43F0A5
:1001600001031847E00D0000000E0000103A24BF04
:1001700078C878C1FAD8520724BF30C830C144BF0C
:1001800004680C607047000000230024002500264E
:10019000103A28BF78C1FBD8520728BF30C148BFEA
:1001A0000B607047632900F0AE80002070471FB5D8
:1001B0001FBD10B510BD00F0E1F81146FFF7F7FFC5
:1001C00000F0F0FC00F0FFF803B4FFF7F2FF03BC0F
:1001D00000F08FFC0948804709480047FEE7FEE72A
:1001E000FEE7FEE7FEE7FEE7FEE7FEE7FEE7FEE7E7
:1001F00004480549054A064B70470000F906000807
:100200003101000860040020600A00206006002020
:1002100060060020704700000FB4044910B503AA1F
:10022000029800F07DF810BC5DF814FB140000206B
:100230002DE9F0410E460446002020622046E16888
:10024000884730B3252805D0D4E901219047206A9A
:10025000401CF2E7E168204600278847050018D0D7
:10026000A5F14100192802D820354FF40067324625
:10027000294620462760FFF795FF40B1012804D0AA
:10028000F61D26F007060836D8E7361DD6E72846BD
:10029000DAE7206ABDE8F08170B50C460546012A10
:1002A00005D02878800600D5EA69002302E0012302
:1002B00005E05B1C934202D2E05C0028F9D1A869FA
:1002C000E618C01AA861286A184428622846AFF3C5
:1002D000008004E0D5E9012114F8010B9047B442F5
:1002E000F8D32846AFF3008070BD70477047704761
:1002F000704710B5436913B1AFF3008001E0FFF719
:10030000CBFF012010BD127800F124010A700022F9
:100310004A700122EDE711684FF0FF32E9E7000073
:10032000074B70B50D467B4400F011F80446284693
:1003300000F020F810B14FF0FF3070BD204670BDC6
:100340005F08000001694A1C02610878704700B527
:100350008FB0CDE901310021059105497944CDE9FE
:10036000031011466846FFF763FF0FB000BD0000A1
:10037000E5FFFFFF007B00F080007047754600F04E
:100380002BF8AE4605006946534620F00700854627
:1003900018B020B5FFF72CFFBDE820404FF0000655
:1003A0004FF000074FF000084FF0000B21F007015D
:1003B000AC46ACE8C009ACE8C009ACE8C009ACE8A0
:1003C000C0098D46704710B50446AFF30080204643
:1003D000BDE81040FFF7F8BE004870470004002059
:1003E00000BFFEE77047000070B5202000F02AF83B
:1003F000E0B142F2107400BF201EA4F10104FBD151
:1004000020210B4800F0BDF878B90121094800F01F
:10041000C1F80546C5F10100C2B20121054800F04E
:10042000C6F8202000F008F800BF00BF70BD000033
:1004300000100140000C01400149086070470000B5
:1004400014040140014600200022074B1B6803EA08
:100450000102054B14331B680B4013B10AB1012094
:1004600000E0002070470000000401402DE9F04149
:10047000024600250026002000230024002791F8D2
:1004800003C00CF00F0591F803C00CF0100CBCF188
:10049000000F03D091F802C04CEA050591F800C0A6
:1004A000BCF1000F31D0146800202BE04FF0010C9C
:1004B0000CFA00F3B1F800C00CEA03069E4220D10A
:1004C00083004FF00F0C0CFA03F7BC4305FA03FC52
:1004D0004CEA040491F803C0BCF1280F06D14FF098
:1004E000010C0CFA00FCC2F814C00AE091F803C039
:1004F000BCF1480F05D14FF0010C0CFA00FCC2F81A
:1005000010C0401C0828D1D31460B1F800C0BCF161
:10051000FF0F34DD546800202EE000F1080C4FF08E
:10052000010808FA0CF3B1F800C00CEA03069E4279
:1005300021D183004FF00F0C0CFA03F7BC4305FAEE
:1005400003FC4CEA040491F803C0BCF1280F05D168
:1005500000F1080C08FA0CF8C2F8148091F803C0F6
:10056000BCF1480F07D100F1080C4FF0010808FA60
:100570000CF8C2F81080401C0828CED35460BDE8A7
:10058000F0810246002093680B400BB1012000E08F
:100590000020704702460020D3680B400BB10120B9
:1005A00000E00020704741617047016170470AB167
:1005B000016100E04161704700BFFEE700BFFEE758
:1005C0007047704729B1064AD2690243044BDA6189
:1005D00004E0034AD2698243014BDA6170470000AC
:1005E0000010024029B1064A92690243044B9A6105
:1005F00004E0034A92698243014B9A61704700000C
:1006000000100240704710B500F002F810BD000065
:100610000CB50020019000903348006840F4803011
:100620003149086000BF3048006800F40030009095
:100630000198401C0190009818B90198B0F5A06F7E
:10064000F1D12948006800F4003010B10120009079
:1006500001E0002000900098012843D12348006861
:1006600040F01000214908600846006820F00300AF
:1006700008600846006840F0020008601A484068B8
:10068000194948600846406848600846406840F498
:10069000806048600846406820F47C104860084646
:1006A000406840F4E81048600846006840F08070F8
:1006B000086000BF0C48006800F000700028F9D006
:1006C0000948406820F00300074948600846406830
:1006D00040F00200486000BF0348406800F00C0092
:1006E0000828F9D10CBD0000001002400020024093
:1006F00010B500F0D3FA10BD10B51348006840F0F3
:1007000001001149086008464068104908400E4938
:100710004860084600680E4908400B4908600846D2
:10072000006820F4802008600846406820F4FE003D
:1007300048604FF41F008860FFF765FF4FF00060CE
:100740000449086010BD0000001002400000FFF8DE
:10075000FFFFF6FE08ED00E04FF08040008A4FF00A
:100760008040008A20F001004FF0804108827047ED
:100770002DE9F0470121274800F0A4F8002847D0D0
:100780000121244800F08CF800BF02212248FFF725
:10079000F8FE0128F9D001211F48FFF706FF4FF4AA
:1007A000166400BF201EA4F10104FBD101211A48E8
:1007B000FFF7F9FE00BF02211748FFF7E2FE00280D
:1007C000F9D000214FF0804000F0E5F801218807C2
:1007D00000F069F800BF02210F48FFF7D2FE0128A0
:1007E000F9D000214FF0804000F05DF84FF08040DC
:1007F00000F065F8814600F08EFA0746074A084B7C
:1008000000F09CFA054600F055FA0649086000BF62
:10081000BDE8F08700040040001001409CC420B0F7
:100820007268913F0800002004480088034800884F
:1008300020F00100014908807047000010080040C6
:1008400010B501210C4800F03DF8A0B101210A4883
:1008500000F026F84FF08040808C00B20749086015
:100860000748008800B20749086000204FF0804127
:1008700088840349088010BD000C0040000000205F
:10088000240800400400002021B1028842F08002C8
:10089000028004E002884FF67F731A40028070479E
:1008A000CA430282704721B1028842F001020280ED
:1008B00004E002884FF6FE731A400280704701463A
:1008C000888C704730B50246002000230024158A2A
:1008D00005EA0103958905EA010413B10CB1012071
:1008E00000E0002030BD000070B50024002200238D
:1008F000058C4FF6FE7635400584028C8388048B88
:100900004FF68F752C40B51E2C400D882C43751E5C
:100910002A400D892A434D882A43144DA8420BD002
:10092000134DA84208D0134DA84205D0124DA8423D
:1009300002D0124DA84213D14FF6F7752A404D89C7
:100940002A434FF6FB752A408D882A434FF6FF65F0
:100950002B404FF6FF552B408D892B43CD892B43E0
:1009600083800483CD888586028470BD002C01407D
:100970000034014000400140004401400048014073
:100980000A460021018B4FF6F7731940114301838A
:10099000704781867047818470470000002202887A
:1009A0001D4B98420ED01D4B98420BD0B0F1804F9A
:1009B00008D01B4B984205D01A4B984202D01A4BD4
:1009C000984204D14FF68F731A404B881A43174B45
:1009D000984207D0164B984204D04FF6FF431A4076
:1009E000CB881A4302808B8883850B8803850A4B4A
:1009F00098420BD0094B984208D00E4B984205D034
:100A00000D4B984202D00D4B984201D10B7A0386D0
:100A10000123838270470000002C01400034014014
:100A20000004004000080040000C0040001000409E
:100A300000140040004001400044014000480140D3
:100A400010B540F225510D4800F022F8A8B10B482E
:100A500000F048F8C4B2214609A0FFF7DDFB0D2CD9
:100A600003D101200749087007E0074801780078A2
:100A7000401C054A10700548445410BD0038014020
:100A80002563000011000020100000201800002045
:100A900070B50246002400230025002040F66A16A7
:100AA000B14200D100BFC1F3421501F01F0301267E
:100AB00006FA03F3012D02D19689334006E0022D98
:100AC00002D1168A334001E0968A33400C12012687
:100AD00006FA04F41688344013B10CB1012000E08A
:100AE000002070BD01468888C0F30800704700BF31
:100AF000FEE700BF704710B5044603E04FF47A707C
:100B000000F006F8201EA4F101018CB2F6D110BD50
:100B100070B50346194803604821B1F1807F00D3C6
:100B20001DE021F07F40401E4FF0E0225061501741
:100B30000F22002807DA1407260E114C00F00F05CB
:100B40002D1F665503E01407250E0E4C255400BFDB
:100B500000204FF0E02290610720106100BF00BF2D
:100B6000064800680028FBD14FF0E020006920F023
:100B700001004FF0E021086170BD00000C00002072
:100B800018ED00E000E400E000BF054A128802F022
:100B90004002002AF9D0C2B2014B1B1D1A807047D7
:100BA0000038014000F030F800F048F829E0002457
:100BB00010E064206043032190FBF1F000F2DC5070
:100BC00085B229460F48FFF7E4FE1420FFF793FF94
:100BD000601CC4B2B42CECDBB42410E0642060438D
:100BE000032190FBF1F000F2DC5085B22946054864
:100BF000FFF7CFFE1420FFF77EFF601EC4B2002C6B
:100C0000ECDCD4E70004004008B501210220FFF726
:100C1000D9FC01210420FFF7E5FC4020ADF80000DD
:100C200018208DF8030003208DF802006946024861
:100C3000FFF71CFC08BD00000008014000B587B0AC
:100C40004EF65F20ADF814001720ADF8100000201C
:100C5000ADF81600ADF8120004A90F48FFF79EFE8C
:100C60006020ADF800000120ADF802000020ADF8D2
:100C7000080069460848FFF737FE08210648FFF7D5
:100C80007FFE01210448FFF7FFFD01210248FFF725
:100C90000AFE07B000BD00000004004004480068E0
:100CA00020B103480068401E0149086070470000F9
:100CB0000C00002021F00042A2F16052B2F5801F2A
:100CC00001F0004328BFD2F17F6C0BD95FEA001C12
:100CD00043EAC20242EB507018BF704728BF20F0B1
:100CE00001007047B2F5801FBCBF184670474FEA3D
:100CF000410C1CF5001F02D2084600F01DB970B56A
:100D000000F0C6F800000089FFF7F6BF4FF0004082
:100D1000A0F580007047B0FA80F310FA03F10AD012
:100D2000C3F11D0303F580634FEA41504FEA0352BC
:100D300002EBD12170474FF000007047DFF848C147
:100D400070B51CEA111E1EBF1CEA13159EEA0C0F9B
:100D500095EA0C0F00F06F8081EA030423EA4C133C
:100D60004EEAD47E21EA4C1141F4801143F4801301
:100D7000AE44A1FB024CA0FB0365AEF17F7E3619A9
:100D800055EB0C05A1FB034C4CF10003A0FB021C2E
:100D900016EB0C06654153F10003094218BF46F0FB
:100DA000010613F4007F0BD14FEA03314FEA0530FF
:100DB000340341EA155140EA16506FF003020AE08D
:100DC0004FEAC3214FEAC520F40241EA555140EAF7
:100DD00056506FF0020202EB2E4201EB025585EAFB
:100DE000CE710AD05FEA440C18BF24F0004450F1E1
:100DF000000041F1000120EAD47040F2FE7C62451F
:100E000000D270BDA84214BF4FF080444FF0404460
:100E1000002E08BF0024BEF1806FA8BFA1F1C04121
:100E2000BDE8704080F282804FF0000001F1C041C7
:100E300001F0004170479EEA0C0F0CEA131518BF31
:100E400095EA0C0F06D04FF0000081EA030E0EF079
:100E5000004170BD00F01CF88900013E00F007B8A9
:100E600000F009B84FEA430C5FEA5C5C08D081EA05
:100E7000030100F05BB84FEA410C5FEA5C5CF6D11D
:100E80004FF00000014970470000FF070000F87FA5
:100E90000EF1020E2EF0030E5EF8046B364205D4FE
:100EA000012A43EB030515F5001F12D8012841EB79
:100EB000010C1CF5001F0CD80ED14FEAD17C15F5A2
:100EC000001F0CEB4C0C0CF1020C08BF4CEBD37C5C
:100ED00004E04FF0080C01E04FEAD37C0CEB4C052A
:100EE00026FA05F606F00706B6F1040C06D20EEB5C
:100EF000860CBDE870404CF0010C6047DFE80CF058
:100F0000090B02024FF000414FF00000A1F5002153
:100F100070BD19461046012851EB010418BFD4F5E5
:100F2000001484BF002001F0004170BD0808A0F546
:100F300000114FEA31017047FF2141EAD050C0054E
:100F400070470000640F0008000000201800000037
:100F50006C0100087C0F000818000020480A0000FF
:100F600088010008000000000000000000000000F0
:0C0F700000000000000000000000000075
:0400000508000131BD
:00000001FF
